{
  "contractName": "Decentraskill",
  "abi": [
    {
      "inputs": [],
      "stateMutability": "nonpayable",
      "type": "constructor"
    },
    {
      "inputs": [
        {
          "internalType": "address",
          "name": "",
          "type": "address"
        }
      ],
      "name": "address_to_id",
      "outputs": [
        {
          "internalType": "uint256",
          "name": "",
          "type": "uint256"
        }
      ],
      "stateMutability": "view",
      "type": "function",
      "constant": true
    },
    {
      "inputs": [
        {
          "internalType": "uint256",
          "name": "",
          "type": "uint256"
        }
      ],
      "name": "certifications",
      "outputs": [
        {
          "internalType": "uint256",
          "name": "id",
          "type": "uint256"
        },
        {
          "internalType": "string",
          "name": "url",
          "type": "string"
        },
        {
          "internalType": "string",
          "name": "issue_date",
          "type": "string"
        },
        {
          "internalType": "string",
          "name": "valid_till",
          "type": "string"
        },
        {
          "internalType": "string",
          "name": "name",
          "type": "string"
        },
        {
          "internalType": "string",
          "name": "issuer",
          "type": "string"
        }
      ],
      "stateMutability": "view",
      "type": "function",
      "constant": true
    },
    {
      "inputs": [
        {
          "internalType": "uint256",
          "name": "",
          "type": "uint256"
        }
      ],
      "name": "companies",
      "outputs": [
        {
          "internalType": "uint256",
          "name": "id",
          "type": "uint256"
        },
        {
          "internalType": "string",
          "name": "name",
          "type": "string"
        },
        {
          "internalType": "address",
          "name": "wallet_address",
          "type": "address"
        }
      ],
      "stateMutability": "view",
      "type": "function",
      "constant": true
    },
    {
      "inputs": [
        {
          "internalType": "string",
          "name": "",
          "type": "string"
        }
      ],
      "name": "email_to_address",
      "outputs": [
        {
          "internalType": "address",
          "name": "",
          "type": "address"
        }
      ],
      "stateMutability": "view",
      "type": "function",
      "constant": true
    },
    {
      "inputs": [
        {
          "internalType": "uint256",
          "name": "",
          "type": "uint256"
        }
      ],
      "name": "employees",
      "outputs": [
        {
          "internalType": "uint256",
          "name": "id",
          "type": "uint256"
        },
        {
          "internalType": "uint256",
          "name": "company_id",
          "type": "uint256"
        },
        {
          "internalType": "string",
          "name": "name",
          "type": "string"
        },
        {
          "internalType": "address",
          "name": "wallet_address",
          "type": "address"
        },
        {
          "internalType": "bool",
          "name": "is_employed",
          "type": "bool"
        },
        {
          "internalType": "bool",
          "name": "is_manager",
          "type": "bool"
        },
        {
          "internalType": "uint256",
          "name": "num_skills",
          "type": "uint256"
        }
      ],
      "stateMutability": "view",
      "type": "function",
      "constant": true
    },
    {
      "inputs": [
        {
          "internalType": "uint256",
          "name": "",
          "type": "uint256"
        }
      ],
      "name": "endorsments",
      "outputs": [
        {
          "internalType": "uint256",
          "name": "endorser_id",
          "type": "uint256"
        },
        {
          "internalType": "string",
          "name": "date",
          "type": "string"
        },
        {
          "internalType": "string",
          "name": "comment",
          "type": "string"
        }
      ],
      "stateMutability": "view",
      "type": "function",
      "constant": true
    },
    {
      "inputs": [
        {
          "internalType": "uint256",
          "name": "",
          "type": "uint256"
        }
      ],
      "name": "experiences",
      "outputs": [
        {
          "internalType": "string",
          "name": "starting_date",
          "type": "string"
        },
        {
          "internalType": "string",
          "name": "ending_date",
          "type": "string"
        },
        {
          "internalType": "string",
          "name": "role",
          "type": "string"
        },
        {
          "internalType": "bool",
          "name": "currently_working",
          "type": "bool"
        },
        {
          "internalType": "uint256",
          "name": "company_id",
          "type": "uint256"
        },
        {
          "internalType": "bool",
          "name": "is_approved",
          "type": "bool"
        }
      ],
      "stateMutability": "view",
      "type": "function",
      "constant": true
    },
    {
      "inputs": [
        {
          "internalType": "address",
          "name": "",
          "type": "address"
        }
      ],
      "name": "is_company",
      "outputs": [
        {
          "internalType": "bool",
          "name": "",
          "type": "bool"
        }
      ],
      "stateMutability": "view",
      "type": "function",
      "constant": true
    },
    {
      "inputs": [
        {
          "internalType": "uint256",
          "name": "",
          "type": "uint256"
        }
      ],
      "name": "skills",
      "outputs": [
        {
          "internalType": "uint256",
          "name": "id",
          "type": "uint256"
        },
        {
          "internalType": "string",
          "name": "name",
          "type": "string"
        },
        {
          "internalType": "bool",
          "name": "verified",
          "type": "bool"
        }
      ],
      "stateMutability": "view",
      "type": "function",
      "constant": true
    },
    {
      "inputs": [
        {
          "internalType": "string",
          "name": "email",
          "type": "string"
        },
        {
          "internalType": "string",
          "name": "name",
          "type": "string"
        },
        {
          "internalType": "string",
          "name": "acc_type",
          "type": "string"
        }
      ],
      "name": "sign_up",
      "outputs": [],
      "stateMutability": "nonpayable",
      "type": "function"
    },
    {
      "inputs": [
        {
          "internalType": "string",
          "name": "email",
          "type": "string"
        }
      ],
      "name": "login",
      "outputs": [
        {
          "internalType": "string",
          "name": "",
          "type": "string"
        }
      ],
      "stateMutability": "view",
      "type": "function",
      "constant": true
    },
    {
      "inputs": [
        {
          "internalType": "string",
          "name": "email",
          "type": "string"
        },
        {
          "internalType": "address",
          "name": "new_address",
          "type": "address"
        }
      ],
      "name": "update_wallet_address",
      "outputs": [],
      "stateMutability": "nonpayable",
      "type": "function"
    },
    {
      "inputs": [
        {
          "internalType": "uint256",
          "name": "user_id",
          "type": "uint256"
        },
        {
          "internalType": "string",
          "name": "role",
          "type": "string"
        },
        {
          "internalType": "string",
          "name": "starting_date",
          "type": "string"
        },
        {
          "internalType": "string",
          "name": "ending_date",
          "type": "string"
        },
        {
          "internalType": "uint256",
          "name": "company_id",
          "type": "uint256"
        }
      ],
      "name": "add_experience",
      "outputs": [],
      "stateMutability": "nonpayable",
      "type": "function"
    },
    {
      "inputs": [
        {
          "internalType": "uint256",
          "name": "experience_id",
          "type": "uint256"
        },
        {
          "internalType": "uint256",
          "name": "company_id",
          "type": "uint256"
        }
      ],
      "name": "approve_experience",
      "outputs": [],
      "stateMutability": "nonpayable",
      "type": "function"
    },
    {
      "inputs": [
        {
          "internalType": "uint256",
          "name": "employee_id",
          "type": "uint256"
        }
      ],
      "name": "approve_manager",
      "outputs": [],
      "stateMutability": "nonpayable",
      "type": "function"
    },
    {
      "inputs": [
        {
          "internalType": "uint256",
          "name": "userid",
          "type": "uint256"
        },
        {
          "internalType": "string",
          "name": "skill_name",
          "type": "string"
        }
      ],
      "name": "add_skill",
      "outputs": [],
      "stateMutability": "nonpayable",
      "type": "function"
    },
    {
      "inputs": [
        {
          "internalType": "uint256",
          "name": "user_id",
          "type": "uint256"
        },
        {
          "internalType": "string",
          "name": "url",
          "type": "string"
        },
        {
          "internalType": "string",
          "name": "issue_date",
          "type": "string"
        },
        {
          "internalType": "string",
          "name": "valid_till",
          "type": "string"
        },
        {
          "internalType": "string",
          "name": "name",
          "type": "string"
        },
        {
          "internalType": "string",
          "name": "issuer",
          "type": "string"
        },
        {
          "internalType": "uint256",
          "name": "linked_skill_id",
          "type": "uint256"
        }
      ],
      "name": "add_certification",
      "outputs": [],
      "stateMutability": "nonpayable",
      "type": "function"
    },
    {
      "inputs": [
        {
          "internalType": "uint256",
          "name": "user_id",
          "type": "uint256"
        },
        {
          "internalType": "uint256",
          "name": "skill_id",
          "type": "uint256"
        },
        {
          "internalType": "string",
          "name": "endorsing_date",
          "type": "string"
        },
        {
          "internalType": "string",
          "name": "comment",
          "type": "string"
        }
      ],
      "name": "endorse_skill",
      "outputs": [],
      "stateMutability": "nonpayable",
      "type": "function"
    }
  ],
  "bytecode": "0x60806040523480156200001157600080fd5b5060006001808160018154018082558091505003906000526020600020906007020190506040518060400160405280600581526020017f64756d6d790000000000000000000000000000000000000000000000000000008152508160020190816200007d91906200048d565b50338160030160006101000a81548173ffffffffffffffffffffffffffffffffffffffff021916908373ffffffffffffffffffffffffffffffffffffffff16021790555060008160000181905550600067ffffffffffffffff811115620000e957620000e86200021e565b5b604051908082528060200260200182016040528015620001185781602001602082028036833780820191505090505b5081600501908051906020019062000132929190620001a2565b50600067ffffffffffffffff8111156200015157620001506200021e565b5b604051908082528060200260200182016040528015620001805781602001602082028036833780820191505090505b508160060190805190602001906200019a929190620001a2565b505062000574565b828054828255906000526020600020908101928215620001e1579160200282015b82811115620001e0578251825591602001919060010190620001c3565b5b509050620001f09190620001f4565b5090565b5b808211156200020f576000816000905550600101620001f5565b5090565b600081519050919050565b7f4e487b7100000000000000000000000000000000000000000000000000000000600052604160045260246000fd5b7f4e487b7100000000000000000000000000000000000000000000000000000000600052602260045260246000fd5b600060028204905060018216806200029557607f821691505b602082108103620002ab57620002aa6200024d565b5b50919050565b60008190508160005260206000209050919050565b60006020601f8301049050919050565b600082821b905092915050565b600060088302620003157fffffffffffffffffffffffffffffffffffffffffffffffffffffffffffffffff82620002d6565b620003218683620002d6565b95508019841693508086168417925050509392505050565b6000819050919050565b6000819050919050565b60006200036e62000368620003628462000339565b62000343565b62000339565b9050919050565b6000819050919050565b6200038a836200034d565b620003a2620003998262000375565b848454620002e3565b825550505050565b600090565b620003b9620003aa565b620003c68184846200037f565b505050565b5b81811015620003ee57620003e2600082620003af565b600181019050620003cc565b5050565b601f8211156200043d576200040781620002b1565b6200041284620002c6565b8101602085101562000422578190505b6200043a6200043185620002c6565b830182620003cb565b50505b505050565b600082821c905092915050565b6000620004626000198460080262000442565b1980831691505092915050565b60006200047d83836200044f565b9150826002028217905092915050565b620004988262000213565b67ffffffffffffffff811115620004b457620004b36200021e565b5b620004c082546200027c565b620004cd828285620003f2565b600060209050601f831160018114620005055760008415620004f0578287015190505b620004fc85826200046f565b8655506200056c565b601f1984166200051586620002b1565b60005b828110156200053f5784890151825560018201915060208501945060208101905062000518565b868310156200055f57848901516200055b601f8916826200044f565b8355505b6001600288020188555050505b505050505050565b6135ec80620005846000396000f3fe608060405234801561001057600080fd5b50600436106101165760003560e01c806350d15fbe116100a2578063b1e116c311610071578063b1e116c314610322578063cf3e7c7c14610354578063dd7a753814610389578063edf85a86146103b9578063f86b20cb146103d557610116565b806350d15fbe146102885780635a2ec07c146102ba5780637a52f30e146102d6578063884ffe321461030657610116565b806336d77eaa116100e957806336d77eaa146101a15780633a7d280c146101bd5780633c0359a4146101ed5780634739326b146102225780634845a2951461025857610116565b8063067709dd1461011b5780630c1bc591146101375780631575cdea146101535780632813d19d1461016f575b600080fd5b61013560048036038101906101309190612587565b6103f1565b005b610151600480360381019061014c91906126b5565b610530565b005b61016d60048036038101906101689190612784565b6106bf565b005b6101896004803603810190610184919061282b565b610bf2565b60405161019893929190612927565b60405180910390f35b6101bb60048036038101906101b6919061282b565b610cd4565b005b6101d760048036038101906101d29190612965565b610eb9565b6040516101e491906129ae565b60405180910390f35b6102076004803603810190610202919061282b565b611031565b604051610219969594939291906129d0565b60405180910390f35b61023c6004803603810190610237919061282b565b611325565b60405161024f9796959493929190612a6f565b60405180910390f35b610272600480360381019061026d9190612965565b611439565b60405161027f9190612ae5565b60405180910390f35b6102a2600480360381019061029d919061282b565b611482565b6040516102b193929190612b00565b60405180910390f35b6102d460048036038101906102cf9190612b3e565b611551565b005b6102f060048036038101906102eb9190612bc6565b611717565b6040516102fd9190612bf3565b60405180910390f35b610320600480360381019061031b9190612c0e565b61172f565b005b61033c6004803603810190610337919061282b565b61190a565b60405161034b93929190612c6a565b60405180910390f35b61036e6004803603810190610369919061282b565b611a54565b60405161038096959493929190612caf565b60405180910390f35b6103a3600480360381019061039e9190612bc6565b611c52565b6040516103b09190612d25565b60405180910390f35b6103d360048036038101906103ce9190612d40565b611c72565b005b6103ef60048036038101906103ea9190612d80565b612116565b005b86600760003373ffffffffffffffffffffffffffffffffffffffff1673ffffffffffffffffffffffffffffffffffffffff16815260200190815260200160002054811461043d57600080fd5b60006002600181600181540180825580915050039060005260206000209060060201905087816001019081610472919061302b565b5086816002019081610484919061302b565b5085816003019081610496919061302b565b50848160040190816104a8919061302b565b5060016002805490506104bb919061312c565b8160000181905550838160050190816104d4919061302b565b50600483815481106104e9576104e8613160565b5b906000526020600020906005020160030181600001549080600181540180825580915050600190039060005260206000200160009091909190915055505050505050505050565b84600760003373ffffffffffffffffffffffffffffffffffffffff1673ffffffffffffffffffffffffffffffffffffffff16815260200190815260200160002054811461057c57600080fd5b60006005600181600181540180825580915050039060005260206000209060060201905082816004018190555060008160050160006101000a81548160ff021916908315150217905550848160000190816105d7919061302b565b50838160010190816105e9919061302b565b50858160020190816105fb919061302b565b50600187815481106106105761060f613160565b5b90600052602060002090600702016006016001600580549050610633919061312c565b90806001815401808255809150506001900390600052602060002001600090919091909150556000838154811061066d5761066c613160565b5b90600052602060002090600602016005016001600580549050610690919061312c565b908060018154018082558091505060019003906000526020600020016000909190919091505550505050505050565b600073ffffffffffffffffffffffffffffffffffffffff166006846040516106e791906131cb565b908152602001604051809103902060009054906101000a900473ffffffffffffffffffffffffffffffffffffffff1673ffffffffffffffffffffffffffffffffffffffff161461076c576040517f08c379a00000000000000000000000000000000000000000000000000000000081526004016107639061322e565b60405180910390fd5b3360068460405161077d91906131cb565b908152602001604051809103902060006101000a81548173ffffffffffffffffffffffffffffffffffffffff021916908373ffffffffffffffffffffffffffffffffffffffff160217905550610808816040518060400160405280600481526020017f7573657200000000000000000000000000000000000000000000000000000000815250612351565b156109b057600060018081600181540180825580915050039060005260206000209060070201905060018080549050610841919061312c565b81600001819055508060000154600760003373ffffffffffffffffffffffffffffffffffffffff1673ffffffffffffffffffffffffffffffffffffffff16815260200190815260200160002081905550828160020190816108a2919061302b565b50338160030160006101000a81548173ffffffffffffffffffffffffffffffffffffffff021916908373ffffffffffffffffffffffffffffffffffffffff160217905550600067ffffffffffffffff8111156109015761090061245c565b5b60405190808252806020026020018201604052801561092f5781602001602082028036833780820191505090505b5081600501908051906020019061094792919061238d565b50600067ffffffffffffffff8111156109635761096261245c565b5b6040519080825280602002602001820160405280156109915781602001602082028036833780820191505090505b508160060190805190602001906109a992919061238d565b5050610bed565b6109ef816040518060400160405280600781526020017f636f6d70616e7900000000000000000000000000000000000000000000000000815250612351565b15610bec57600080600181600181540180825580915050039060005260206000209060060201905082816001019081610a28919061302b565b506001600080549050610a3b919061312c565b8160000181905550338160020160006101000a81548173ffffffffffffffffffffffffffffffffffffffff021916908373ffffffffffffffffffffffffffffffffffffffff160217905550600067ffffffffffffffff811115610aa157610aa061245c565b5b604051908082528060200260200182016040528015610acf5781602001602082028036833780820191505090505b50816003019080519060200190610ae792919061238d565b50600067ffffffffffffffff811115610b0357610b0261245c565b5b604051908082528060200260200182016040528015610b315781602001602082028036833780820191505090505b50816004019080519060200190610b4992919061238d565b508060000154600760003373ffffffffffffffffffffffffffffffffffffffff1673ffffffffffffffffffffffffffffffffffffffff168152602001908152602001600020819055506001600860003373ffffffffffffffffffffffffffffffffffffffff1673ffffffffffffffffffffffffffffffffffffffff16815260200190815260200160002060006101000a81548160ff021916908315150217905550505b5b505050565b60008181548110610c0257600080fd5b9060005260206000209060060201600091509050806000015490806001018054610c2b90612e4e565b80601f0160208091040260200160405190810160405280929190818152602001828054610c5790612e4e565b8015610ca45780601f10610c7957610100808354040283529160200191610ca4565b820191906000526020600020905b815481529060010190602001808311610c8757829003601f168201915b5050505050908060020160009054906101000a900473ffffffffffffffffffffffffffffffffffffffff16905083565b600860003373ffffffffffffffffffffffffffffffffffffffff1673ffffffffffffffffffffffffffffffffffffffff16815260200190815260200160002060009054906101000a900460ff16610d60576040517f08c379a0000000000000000000000000000000000000000000000000000000008152600401610d57906132c0565b60405180910390fd5b600760003373ffffffffffffffffffffffffffffffffffffffff1673ffffffffffffffffffffffffffffffffffffffff1681526020019081526020016000205460018281548110610db457610db3613160565b5b90600052602060002090600702016001015414610e06576040517f08c379a0000000000000000000000000000000000000000000000000000000008152600401610dfd90613352565b60405180910390fd5b60018181548110610e1a57610e19613160565b5b906000526020600020906007020160030160159054906101000a900460ff1615610e79576040517f08c379a0000000000000000000000000000000000000000000000000000000008152600401610e70906133be565b60405180910390fd5b6001808281548110610e8e57610e8d613160565b5b906000526020600020906007020160030160156101000a81548160ff02191690831515021790555050565b6060600682604051610ecb91906131cb565b908152602001604051809103902060009054906101000a900473ffffffffffffffffffffffffffffffffffffffff1673ffffffffffffffffffffffffffffffffffffffff163373ffffffffffffffffffffffffffffffffffffffff1614610f67576040517f08c379a0000000000000000000000000000000000000000000000000000000008152600401610f5e9061342a565b60405180910390fd5b600860003373ffffffffffffffffffffffffffffffffffffffff1673ffffffffffffffffffffffffffffffffffffffff16815260200190815260200160002060009054906101000a900460ff16610ff3576040518060400160405280600481526020017f757365720000000000000000000000000000000000000000000000000000000081525061102a565b6040518060400160405280600781526020017f636f6d70616e79000000000000000000000000000000000000000000000000008152505b9050919050565b6002818154811061104157600080fd5b906000526020600020906006020160009150905080600001549080600101805461106a90612e4e565b80601f016020809104026020016040519081016040528092919081815260200182805461109690612e4e565b80156110e35780601f106110b8576101008083540402835291602001916110e3565b820191906000526020600020905b8154815290600101906020018083116110c657829003601f168201915b5050505050908060020180546110f890612e4e565b80601f016020809104026020016040519081016040528092919081815260200182805461112490612e4e565b80156111715780601f1061114657610100808354040283529160200191611171565b820191906000526020600020905b81548152906001019060200180831161115457829003601f168201915b50505050509080600301805461118690612e4e565b80601f01602080910402602001604051908101604052809291908181526020018280546111b290612e4e565b80156111ff5780601f106111d4576101008083540402835291602001916111ff565b820191906000526020600020905b8154815290600101906020018083116111e257829003601f168201915b50505050509080600401805461121490612e4e565b80601f016020809104026020016040519081016040528092919081815260200182805461124090612e4e565b801561128d5780601f106112625761010080835404028352916020019161128d565b820191906000526020600020905b81548152906001019060200180831161127057829003601f168201915b5050505050908060050180546112a290612e4e565b80601f01602080910402602001604051908101604052809291908181526020018280546112ce90612e4e565b801561131b5780601f106112f05761010080835404028352916020019161131b565b820191906000526020600020905b8154815290600101906020018083116112fe57829003601f168201915b5050505050905086565b6001818154811061133557600080fd5b906000526020600020906007020160009150905080600001549080600101549080600201805461136490612e4e565b80601f016020809104026020016040519081016040528092919081815260200182805461139090612e4e565b80156113dd5780601f106113b2576101008083540402835291602001916113dd565b820191906000526020600020905b8154815290600101906020018083116113c057829003601f168201915b5050505050908060030160009054906101000a900473ffffffffffffffffffffffffffffffffffffffff16908060030160149054906101000a900460ff16908060030160159054906101000a900460ff16908060040154905087565b6006818051602081018201805184825260208301602085012081835280955050505050506000915054906101000a900473ffffffffffffffffffffffffffffffffffffffff1681565b6004818154811061149257600080fd5b90600052602060002090600502016000915090508060000154908060010180546114bb90612e4e565b80601f01602080910402602001604051908101604052809291908181526020018280546114e790612e4e565b80156115345780601f1061150957610100808354040283529160200191611534565b820191906000526020600020905b81548152906001019060200180831161151757829003601f168201915b5050505050908060020160009054906101000a900460ff16905083565b81600760003373ffffffffffffffffffffffffffffffffffffffff1673ffffffffffffffffffffffffffffffffffffffff16815260200190815260200160002054811461159d57600080fd5b600060046001816001815401808255809150500390600052602060002090600502019050600184815481106115d5576115d4613160565b5b906000526020600020906007020160050160016004805490506115f8919061312c565b90806001815401808255809150506001900390600052602060002001600090919091909150558281600101908161162f919061302b565b5060008160020160006101000a81548160ff021916908315150217905550600067ffffffffffffffff8111156116685761166761245c565b5b6040519080825280602002602001820160405280156116965781602001602082028036833780820191505090505b508160030190805190602001906116ae92919061238d565b50600067ffffffffffffffff8111156116ca576116c961245c565b5b6040519080825280602002602001820160405280156116f85781602001602082028036833780820191505090505b5081600401908051906020019061171092919061238d565b5050505050565b60076020528060005260406000206000915090505481565b3373ffffffffffffffffffffffffffffffffffffffff1660068360405161175691906131cb565b908152602001604051809103902060009054906101000a900473ffffffffffffffffffffffffffffffffffffffff1673ffffffffffffffffffffffffffffffffffffffff16146117db576040517f08c379a00000000000000000000000000000000000000000000000000000000081526004016117d2906134bc565b60405180910390fd5b806006836040516117ec91906131cb565b908152602001604051809103902060006101000a81548173ffffffffffffffffffffffffffffffffffffffff021916908373ffffffffffffffffffffffffffffffffffffffff1602179055506000600760003373ffffffffffffffffffffffffffffffffffffffff1673ffffffffffffffffffffffffffffffffffffffff1681526020019081526020016000205490506000600760003373ffffffffffffffffffffffffffffffffffffffff1673ffffffffffffffffffffffffffffffffffffffff1681526020019081526020016000208190555080600760008473ffffffffffffffffffffffffffffffffffffffff1673ffffffffffffffffffffffffffffffffffffffff16815260200190815260200160002081905550505050565b6003818154811061191a57600080fd5b906000526020600020906003020160009150905080600001549080600101805461194390612e4e565b80601f016020809104026020016040519081016040528092919081815260200182805461196f90612e4e565b80156119bc5780601f10611991576101008083540402835291602001916119bc565b820191906000526020600020905b81548152906001019060200180831161199f57829003601f168201915b5050505050908060020180546119d190612e4e565b80601f01602080910402602001604051908101604052809291908181526020018280546119fd90612e4e565b8015611a4a5780601f10611a1f57610100808354040283529160200191611a4a565b820191906000526020600020905b815481529060010190602001808311611a2d57829003601f168201915b5050505050905083565b60058181548110611a6457600080fd5b9060005260206000209060060201600091509050806000018054611a8790612e4e565b80601f0160208091040260200160405190810160405280929190818152602001828054611ab390612e4e565b8015611b005780601f10611ad557610100808354040283529160200191611b00565b820191906000526020600020905b815481529060010190602001808311611ae357829003601f168201915b505050505090806001018054611b1590612e4e565b80601f0160208091040260200160405190810160405280929190818152602001828054611b4190612e4e565b8015611b8e5780601f10611b6357610100808354040283529160200191611b8e565b820191906000526020600020905b815481529060010190602001808311611b7157829003601f168201915b505050505090806002018054611ba390612e4e565b80601f0160208091040260200160405190810160405280929190818152602001828054611bcf90612e4e565b8015611c1c5780601f10611bf157610100808354040283529160200191611c1c565b820191906000526020600020905b815481529060010190602001808311611bff57829003601f168201915b5050505050908060030160009054906101000a900460ff16908060040154908060050160009054906101000a900460ff16905086565b60086020528060005260406000206000915054906101000a900460ff1681565b600860003373ffffffffffffffffffffffffffffffffffffffff1673ffffffffffffffffffffffffffffffffffffffff16815260200190815260200160002060009054906101000a900460ff168015611d53575060058281548110611cda57611cd9613160565b5b9060005260206000209060060201600401546000600760003373ffffffffffffffffffffffffffffffffffffffff1673ffffffffffffffffffffffffffffffffffffffff1681526020019081526020016000205481548110611d3f57611d3e613160565b5b906000526020600020906006020160000154145b80611e6057506001600760003373ffffffffffffffffffffffffffffffffffffffff1673ffffffffffffffffffffffffffffffffffffffff1681526020019081526020016000205481548110611dac57611dab613160565b5b906000526020600020906007020160030160159054906101000a900460ff168015611e5f575060058281548110611de657611de5613160565b5b9060005260206000209060060201600401546001600760003373ffffffffffffffffffffffffffffffffffffffff1673ffffffffffffffffffffffffffffffffffffffff1681526020019081526020016000205481548110611e4b57611e4a613160565b5b906000526020600020906007020160010154145b5b611e9f576040517f08c379a0000000000000000000000000000000000000000000000000000000008152600401611e969061354e565b60405180910390fd5b6000600160058481548110611eb757611eb6613160565b5b906000526020600020906006020160050160006101000a81548160ff021916908315150217905550600090505b60008281548110611ef857611ef7613160565b5b906000526020600020906006020160050180549050811015611fba578260008381548110611f2957611f28613160565b5b90600052602060002090600602016005018281548110611f4c57611f4b613160565b5b906000526020600020015403611fa7576000808381548110611f7157611f70613160565b5b90600052602060002090600602016005018281548110611f9457611f93613160565b5b9060005260206000200181905550611fba565b8080611fb29061356e565b915050611ee4565b600090505b60008281548110611fd357611fd2613160565b5b90600052602060002090600602016003018054905081101561209557600080838154811061200457612003613160565b5b9060005260206000209060060201600301828154811061202757612026613160565b5b90600052602060002001540361208257826000838154811061204c5761204b613160565b5b9060005260206000209060060201600501828154811061206f5761206e613160565b5b9060005260206000200181905550612095565b808061208d9061356e565b915050611fbf565b600082815481106120a9576120a8613160565b5b906000526020600020906006020160030180549050810361211157600082815481106120d8576120d7613160565b5b90600052602060002090600602016003018390806001815401808255809150506001900390600052602060002001600090919091909150555b505050565b600060036001816001815401808255809150500390600052602060002090600302019050600760003373ffffffffffffffffffffffffffffffffffffffff1673ffffffffffffffffffffffffffffffffffffffff16815260200190815260200160002054816000018190555081816002019081612193919061302b565b50828160010190816121a5919061302b565b50600484815481106121ba576121b9613160565b5b906000526020600020906005020160040160016003805490506121dd919061312c565b90806001815401808255809150506001900390600052602060002001600090919091909150556001600760003373ffffffffffffffffffffffffffffffffffffffff1673ffffffffffffffffffffffffffffffffffffffff168152602001908152602001600020548154811061225657612255613160565b5b906000526020600020906007020160030160159054906101000a900460ff161561234a576001858154811061228e5761228d613160565b5b9060005260206000209060070201600101546001600760003373ffffffffffffffffffffffffffffffffffffffff1673ffffffffffffffffffffffffffffffffffffffff16815260200190815260200160002054815481106122f3576122f2613160565b5b90600052602060002090600702016001015403612349576001600485815481106123205761231f613160565b5b906000526020600020906005020160020160006101000a81548160ff0219169083151502179055505b5b5050505050565b600061235d8383612365565b905092915050565b600081518351148015612385575081805190602001208380519060200120145b905092915050565b8280548282559060005260206000209081019282156123c9579160200282015b828111156123c85782518255916020019190600101906123ad565b5b5090506123d691906123da565b5090565b5b808211156123f35760008160009055506001016123db565b5090565b6000604051905090565b600080fd5b600080fd5b6000819050919050565b61241e8161240b565b811461242957600080fd5b50565b60008135905061243b81612415565b92915050565b600080fd5b600080fd5b6000601f19601f8301169050919050565b7f4e487b7100000000000000000000000000000000000000000000000000000000600052604160045260246000fd5b6124948261244b565b810181811067ffffffffffffffff821117156124b3576124b261245c565b5b80604052505050565b60006124c66123f7565b90506124d2828261248b565b919050565b600067ffffffffffffffff8211156124f2576124f161245c565b5b6124fb8261244b565b9050602081019050919050565b82818337600083830152505050565b600061252a612525846124d7565b6124bc565b90508281526020810184848401111561254657612545612446565b5b612551848285612508565b509392505050565b600082601f83011261256e5761256d612441565b5b813561257e848260208601612517565b91505092915050565b600080600080600080600060e0888a0312156125a6576125a5612401565b5b60006125b48a828b0161242c565b975050602088013567ffffffffffffffff8111156125d5576125d4612406565b5b6125e18a828b01612559565b965050604088013567ffffffffffffffff81111561260257612601612406565b5b61260e8a828b01612559565b955050606088013567ffffffffffffffff81111561262f5761262e612406565b5b61263b8a828b01612559565b945050608088013567ffffffffffffffff81111561265c5761265b612406565b5b6126688a828b01612559565b93505060a088013567ffffffffffffffff81111561268957612688612406565b5b6126958a828b01612559565b92505060c06126a68a828b0161242c565b91505092959891949750929550565b600080600080600060a086880312156126d1576126d0612401565b5b60006126df8882890161242c565b955050602086013567ffffffffffffffff811115612700576126ff612406565b5b61270c88828901612559565b945050604086013567ffffffffffffffff81111561272d5761272c612406565b5b61273988828901612559565b935050606086013567ffffffffffffffff81111561275a57612759612406565b5b61276688828901612559565b92505060806127778882890161242c565b9150509295509295909350565b60008060006060848603121561279d5761279c612401565b5b600084013567ffffffffffffffff8111156127bb576127ba612406565b5b6127c786828701612559565b935050602084013567ffffffffffffffff8111156127e8576127e7612406565b5b6127f486828701612559565b925050604084013567ffffffffffffffff81111561281557612814612406565b5b61282186828701612559565b9150509250925092565b60006020828403121561284157612840612401565b5b600061284f8482850161242c565b91505092915050565b6128618161240b565b82525050565b600081519050919050565b600082825260208201905092915050565b60005b838110156128a1578082015181840152602081019050612886565b60008484015250505050565b60006128b882612867565b6128c28185612872565b93506128d2818560208601612883565b6128db8161244b565b840191505092915050565b600073ffffffffffffffffffffffffffffffffffffffff82169050919050565b6000612911826128e6565b9050919050565b61292181612906565b82525050565b600060608201905061293c6000830186612858565b818103602083015261294e81856128ad565b905061295d6040830184612918565b949350505050565b60006020828403121561297b5761297a612401565b5b600082013567ffffffffffffffff81111561299957612998612406565b5b6129a584828501612559565b91505092915050565b600060208201905081810360008301526129c881846128ad565b905092915050565b600060c0820190506129e56000830189612858565b81810360208301526129f781886128ad565b90508181036040830152612a0b81876128ad565b90508181036060830152612a1f81866128ad565b90508181036080830152612a3381856128ad565b905081810360a0830152612a4781846128ad565b9050979650505050505050565b60008115159050919050565b612a6981612a54565b82525050565b600060e082019050612a84600083018a612858565b612a916020830189612858565b8181036040830152612aa381886128ad565b9050612ab26060830187612918565b612abf6080830186612a60565b612acc60a0830185612a60565b612ad960c0830184612858565b98975050505050505050565b6000602082019050612afa6000830184612918565b92915050565b6000606082019050612b156000830186612858565b8181036020830152612b2781856128ad565b9050612b366040830184612a60565b949350505050565b60008060408385031215612b5557612b54612401565b5b6000612b638582860161242c565b925050602083013567ffffffffffffffff811115612b8457612b83612406565b5b612b9085828601612559565b9150509250929050565b612ba381612906565b8114612bae57600080fd5b50565b600081359050612bc081612b9a565b92915050565b600060208284031215612bdc57612bdb612401565b5b6000612bea84828501612bb1565b91505092915050565b6000602082019050612c086000830184612858565b92915050565b60008060408385031215612c2557612c24612401565b5b600083013567ffffffffffffffff811115612c4357612c42612406565b5b612c4f85828601612559565b9250506020612c6085828601612bb1565b9150509250929050565b6000606082019050612c7f6000830186612858565b8181036020830152612c9181856128ad565b90508181036040830152612ca581846128ad565b9050949350505050565b600060c0820190508181036000830152612cc981896128ad565b90508181036020830152612cdd81886128ad565b90508181036040830152612cf181876128ad565b9050612d006060830186612a60565b612d0d6080830185612858565b612d1a60a0830184612a60565b979650505050505050565b6000602082019050612d3a6000830184612a60565b92915050565b60008060408385031215612d5757612d56612401565b5b6000612d658582860161242c565b9250506020612d768582860161242c565b9150509250929050565b60008060008060808587031215612d9a57612d99612401565b5b6000612da88782880161242c565b9450506020612db98782880161242c565b935050604085013567ffffffffffffffff811115612dda57612dd9612406565b5b612de687828801612559565b925050606085013567ffffffffffffffff811115612e0757612e06612406565b5b612e1387828801612559565b91505092959194509250565b7f4e487b7100000000000000000000000000000000000000000000000000000000600052602260045260246000fd5b60006002820490506001821680612e6657607f821691505b602082108103612e7957612e78612e1f565b5b50919050565b60008190508160005260206000209050919050565b60006020601f8301049050919050565b600082821b905092915050565b600060088302612ee17fffffffffffffffffffffffffffffffffffffffffffffffffffffffffffffffff82612ea4565b612eeb8683612ea4565b95508019841693508086168417925050509392505050565b6000819050919050565b6000612f28612f23612f1e8461240b565b612f03565b61240b565b9050919050565b6000819050919050565b612f4283612f0d565b612f56612f4e82612f2f565b848454612eb1565b825550505050565b600090565b612f6b612f5e565b612f76818484612f39565b505050565b5b81811015612f9a57612f8f600082612f63565b600181019050612f7c565b5050565b601f821115612fdf57612fb081612e7f565b612fb984612e94565b81016020851015612fc8578190505b612fdc612fd485612e94565b830182612f7b565b50505b505050565b600082821c905092915050565b600061300260001984600802612fe4565b1980831691505092915050565b600061301b8383612ff1565b9150826002028217905092915050565b61303482612867565b67ffffffffffffffff81111561304d5761304c61245c565b5b6130578254612e4e565b613062828285612f9e565b600060209050601f8311600181146130955760008415613083578287015190505b61308d858261300f565b8655506130f5565b601f1984166130a386612e7f565b60005b828110156130cb578489015182556001820191506020850194506020810190506130a6565b868310156130e857848901516130e4601f891682612ff1565b8355505b6001600288020188555050505b505050505050565b7f4e487b7100000000000000000000000000000000000000000000000000000000600052601160045260246000fd5b60006131378261240b565b91506131428361240b565b925082820390508181111561315a576131596130fd565b5b92915050565b7f4e487b7100000000000000000000000000000000000000000000000000000000600052603260045260246000fd5b600081905092915050565b60006131a582612867565b6131af818561318f565b93506131bf818560208601612883565b80840191505092915050565b60006131d7828461319a565b915081905092915050565b7f4572726f723a207573657220616c726561647920657869737473000000000000600082015250565b6000613218601a83612872565b9150613223826131e2565b602082019050919050565b600060208201905081810360008301526132478161320b565b9050919050565b7f6572726f723a2073656e646572206e6f74206120636f6d70616e79206163636f60008201527f756e740000000000000000000000000000000000000000000000000000000000602082015250565b60006132aa602383612872565b91506132b58261324e565b604082019050919050565b600060208201905081810360008301526132d98161329d565b9050919050565b7f6572726f723a2075736572206e6f74206f66207468652073616d6520636f6d7060008201527f616e790000000000000000000000000000000000000000000000000000000000602082015250565b600061333c602383612872565b9150613347826132e0565b604082019050919050565b6000602082019050818103600083015261336b8161332f565b9050919050565b7f6572726f723a207573657220697320616c72656164792061206d616e61676572600082015250565b60006133a8602083612872565b91506133b382613372565b602082019050919050565b600060208201905081810360008301526133d78161339b565b9050919050565b7f4572726f723a20496e636f727265637420000000000000000000000000000000600082015250565b6000613414601183612872565b915061341f826133de565b602082019050919050565b6000602082019050818103600083015261344381613407565b9050919050565b7f4572726f723a2046756e6374696f6e2063616c6c65642066726f6d20696e636f60008201527f72726563742077616c6c65742061646472657373000000000000000000000000602082015250565b60006134a6603483612872565b91506134b18261344a565b604082019050919050565b600060208201905081810360008301526134d581613499565b9050919050565b7f4572726f723a20417070726f7665722073686f756c642062652074686520636f60008201527f6d70616e79206f72206d616e6167657200000000000000000000000000000000602082015250565b6000613538603083612872565b9150613543826134dc565b604082019050919050565b600060208201905081810360008301526135678161352b565b9050919050565b60006135798261240b565b91507fffffffffffffffffffffffffffffffffffffffffffffffffffffffffffffffff82036135ab576135aa6130fd565b5b60018201905091905056fea2646970667358221220a2dfdaac5516f6c2d4301c3a933cedc164e3126435705925b1fac2e60fa8e5d164736f6c63430008130033",
  "immutableReferences": {},
  "source": "// SPDX-License-Identifier: MIT\npragma solidity >=0.4.22 <0.9.0;\n\ncontract Decentraskill {\n    // Data declarations\n    company[] public companies;\n    user[] public employees;\n    certificate[] public certifications;\n    endorsment[] public endorsments;\n    skill[] public skills;\n    experience[] public experiences;\n\n    // Mappings\n    mapping(string => address) public email_to_address;\n    mapping(address => uint256) public address_to_id;\n    mapping(address => bool) public is_company;\n\n    constructor() {\n        user storage dummy_user = employees.push();\n        dummy_user.name = \"dummy\";\n        dummy_user.wallet_address = msg.sender;\n        dummy_user.id = 0;\n        dummy_user.user_skills = new uint256[](0);\n        dummy_user.work_experience = new uint256[](0);\n    }\n\n    // Structure Declarations\n    struct company {\n        uint256 id;\n        string name;\n        address wallet_address;\n        uint256[] current_employees;\n        uint256[] previous_employees;\n        uint256[] requested_employees;\n    }\n\n    struct user {\n        uint256 id;\n        uint256 company_id;\n        string name;\n        address wallet_address;\n        bool is_employed;\n        bool is_manager;\n        uint256 num_skills;\n        uint256[] user_skills;\n        uint256[] work_experience;\n    }\n\n    struct experience {\n        string starting_date;\n        string ending_date;\n        string role;\n        bool currently_working;\n        uint256 company_id;\n        bool is_approved;\n    }\n\n    struct certificate {\n        uint256 id;\n        string url;\n        string issue_date;\n        string valid_till;\n        string name;\n        string issuer;\n    }\n\n    struct endorsment {\n        uint256 endorser_id;\n        string date;\n        string comment;\n    }\n\n    struct skill {\n        uint256 id;\n        string name;\n        bool verified;\n        uint256[] skill_certifications;\n        uint256[] skill_endorsements;\n    }\n\n    // Compare the hash\n    function memcmp(bytes memory a, bytes memory b) internal pure returns(bool) {\n        return (a.length == b.length) && (keccak256(a) == keccak256(b));\n    }\n\n    // Compare the strings\n    function strcmp(string memory a, string memory b) internal pure returns(bool) { \n        return memcmp(bytes(a), bytes(b));\n    }\n\n    // Signup user\n    function sign_up(string memory email, string memory name, string memory acc_type) public {\n        require(email_to_address[email] == address(0), 'Error: user already exists');\n\n        email_to_address[email] = msg.sender;\n\n        if(strcmp(acc_type, 'user')) {\n            user storage new_user = employees.push();\n            new_user.id = employees.length - 1;\n            address_to_id[msg.sender] = new_user.id;\n            new_user.name = name;\n            new_user.wallet_address = msg.sender;\n            new_user.user_skills = new uint256[](0);\n            new_user.work_experience = new uint256[](0);\n        } else if(strcmp(acc_type, 'company')) {\n            company storage new_company = companies.push();\n            new_company.name = name;\n            new_company.id = companies.length - 1;\n            new_company.wallet_address = msg.sender;\n            new_company.current_employees = new uint256[](0);\n            new_company.previous_employees = new uint256[](0);\n            address_to_id[msg.sender] = new_company.id;\n            is_company[msg.sender] = true;\n        }\n    }\n\n    // Login user\n    function login(string memory email) public view returns(string memory) {\n        require(msg.sender == email_to_address[email], 'Error: Incorrect ');\n        return is_company[msg.sender] ? \"company\" : \"user\";\n    }\n\n    // Update wallet  address\n    function update_wallet_address(string memory email, address new_address) external {\n        require(email_to_address[email] == msg.sender, \"Error: Function called from incorrect wallet address\");\n\n        email_to_address[email] = new_address;\n        uint256 id = address_to_id[msg.sender];\n        address_to_id[msg.sender] = 0;\n        address_to_id[new_address] = id;\n    }\n\n    // Check if verified user\n    modifier verifiedUser(uint256 user_id) {\n        require(user_id == address_to_id[msg.sender]);\n        _;\n    }\n\n    // Add experience\n    function add_experience(uint256 user_id,\n        string memory role,\n        string memory starting_date,\n        string memory ending_date,\n        uint256 company_id) \n        public verifiedUser(user_id) {\n        experience storage new_experience = experiences.push();\n        new_experience.company_id = company_id;\n        new_experience.is_approved = false;\n        new_experience.starting_date = starting_date;\n        new_experience.ending_date = ending_date;\n        new_experience.role = role;\n        employees[user_id].work_experience.push(experiences.length - 1);\n        companies[company_id].requested_employees.push(experiences.length - 1);\n    }\n\n    // Approve experience\n    function approve_experience(\n        uint256 experience_id,\n        uint256 company_id\n    ) public {\n        require(\n        (is_company[msg.sender] &&\n        companies[address_to_id[msg.sender]].id == experiences[experience_id].company_id) ||\n        (employees[address_to_id[msg.sender]].is_manager &&\n        employees[address_to_id[msg.sender]].company_id == experiences[experience_id].company_id), \"Error: Approver should be the company or manager\"\n        );\n\n        uint256 i;\n        experiences[experience_id].is_approved = true;\n\n        // Remove item from Requested\n        for (i = 0; i < companies[company_id].requested_employees.length; i++) {\n            if (companies[company_id].requested_employees[i] == experience_id) {\n                companies[company_id].requested_employees[i] = 0;\n                break;\n            }\n        }\n\n        // Add item in Approved\n        for (i = 0; i < companies[company_id].current_employees.length; i++) {\n            if (companies[company_id].current_employees[i] == 0) {\n                companies[company_id].requested_employees[i] = experience_id;\n                break;\n            }\n        }\n\n\n        if (i == companies[company_id].current_employees.length)\n        companies[company_id].current_employees.push(experience_id);\n    }\n\n    // Approve manager\n    function approve_manager(uint256 employee_id) public {\n\t\trequire(is_company[msg.sender], \"error: sender not a company account\");\n        require(\n            employees[employee_id].company_id == address_to_id[msg.sender],\n            \"error: user not of the same company\"\n        );\n        require(\n            !(employees[employee_id].is_manager),\n            \"error: user is already a manager\"\n        );\n        employees[employee_id].is_manager = true;\n    }\n\n    // Add skill\n    function add_skill(uint256 userid, string memory skill_name) public verifiedUser(userid) {\n        skill storage new_skill = skills.push();\n        employees[userid].user_skills.push(skills.length - 1);\n        new_skill.name = skill_name;\n        new_skill.verified = false;\n        new_skill.skill_certifications = new uint256[](0);\n        new_skill.skill_endorsements = new uint256[](0);\n    }\n\n    // Add certification\n    function add_certification(\n        uint256 user_id,\n        string memory url,\n        string memory issue_date,\n        string memory valid_till,\n        string memory name,\n        string memory issuer,\n        uint256 linked_skill_id\n    ) public verifiedUser(user_id) {\n        certificate storage new_certificate = certifications.push();\n        new_certificate.url = url;\n        new_certificate.issue_date = issue_date;\n        new_certificate.valid_till = valid_till;\n        new_certificate.name = name;\n        new_certificate.id = certifications.length - 1;\n        new_certificate.issuer = issuer;\n        skills[linked_skill_id].skill_certifications.push(new_certificate.id);\n    }\n\n    // Endorse skill\n    function endorse_skill(\n        uint256 user_id,\n        uint256 skill_id,\n        string memory endorsing_date,\n        string memory comment\n    ) public {\n        endorsment storage new_endorsemnt = endorsments.push();\n        new_endorsemnt.endorser_id = address_to_id[msg.sender];\n        new_endorsemnt.comment = comment;\n        new_endorsemnt.date = endorsing_date;\n        skills[skill_id].skill_endorsements.push(endorsments.length - 1);\n        if (employees[address_to_id[msg.sender]].is_manager) {\n            if (\n                employees[address_to_id[msg.sender]].company_id ==\n                employees[user_id].company_id\n            ) {\n                skills[skill_id].verified = true;\n            }\n        }\n    }\n}",
  "sourcePath": "/Users/imsks/Public/git-repos/web3/decentraskill-dev/contracts/Decentraskill.sol",
  "compiler": {
    "name": "solc",
    "version": "0.8.19+commit.7dd6d404.Emscripten.clang"
  },
  "schemaVersion": "3.4.13",
  "updatedAt": "2023-05-17T03:02:30.143Z",
  "networkType": "ethereum",
  "devdoc": {
    "kind": "dev",
    "methods": {},
    "version": 1
  },
  "userdoc": {
    "kind": "user",
    "methods": {},
    "version": 1
  }
}